:100000000C9433000C94E4100C94E4100C94E41061
:100010000C94E4100C94E4100C94E4100C94E41090
:100020000C94E4100C94E4100C94E4100C94A70CC1
:100030000C94E4100C949C0D0C94E4100C94E410BB
:100040000C94E4100C94E4100C94E4100C94E41060
:100050000C94E4100060008880008802D20021DC4B
:1000600002D202D6800011241FBECFE5D8E0DEBF49
:10007000CDBFE4E5F0E040E017C0B591A591359122
:100080002591059107FD0CC095918591EF01F92F00
:10009000E82F05900D92A217B307D9F7FE0104C00F
:1000A0001D92A217B307E1F7E536F40731F70E9476
:0A00B000E7080C945B00F894FFCF02
:0F00BA003131313100323232320061646D6E000B
:1000CA0041E050E064E070E081E090E00E94F707D0
:1000DA0041E050E065E070E081E090E00E94F707BF
:1000EA0041E050E066E070E081E090E00E94F707AE
:1000FA0041E050E067E070E081E090E00E94F7079D
:10010A0041E050E067E070E082E090E00E94F7078B
:10011A008DE00E94D51082E492E00E941C108DE0CE
:10012A000E94D51087E392E00E941C108DE00E9485
:10013A00D5108CE292E00E941C108DE00E94D5102E
:10014A0081E292E00E941C108DE00E94D51086EA9E
:10015A0090E00E941C108DE00E94D5108CEF90E078
:10016A000E941C108DE00E94D5100E94D910813384
:10017A00D1F58DE00E94D51085E992E00E941C100D
:10018A008DE00E94D51088E792E00E941C108DE055
:10019A000E94D5108CEF90E00E941C108DE00E9406
:1001AA00D5100E94D910813341F0823389F080330F
:1001BA0009F471C181E090E0089541E050E064E003
:1001CA0070E081E090E00E946F0881E090E008957D
:1001DA0040E050E064E070E081E090E00E946F0847
:1001EA0081E090E008958233D1F58DE00E94D51028
:1001FA0085E992E00E941C108DE00E94D51088E7E4
:10020A0092E00E941C108DE00E94D5108CEF90E0C5
:10021A000E941C108DE00E94D5100E94D9108133D3
:10022A0041F0823389F0803309F438C181E090E0EB
:10023A00089541E050E065E070E081E090E00E94BE
:10024A006F0881E090E0089540E050E065E070E0DA
:10025A0081E090E00E946F0881E090E00895833386
:10026A00D1F58DE00E94D51085E992E00E941C101C
:10027A008DE00E94D51088E792E00E941C108DE064
:10028A000E94D5108CEF90E00E941C108DE00E9415
:10029A00D5100E94D910813341F0823389F080331E
:1002AA0009F4FFC081E090E0089541E050E066E083
:1002BA0070E081E090E00E946F0881E090E008958C
:1002CA0040E050E066E070E081E090E00E946F0854
:1002DA0081E090E008958433D1F58DE00E94D51035
:1002EA0085E992E00E941C108DE00E94D51088E7F3
:1002FA0092E00E941C108DE00E94D5108CEF90E0D5
:10030A000E941C108DE00E94D5100E94D9108133E2
:10031A0041F0823389F0803309F4C6C081E090E06D
:10032A00089541E050E067E070E081E090E00E94CB
:10033A006F0881E090E0089540E050E067E070E0E7
:10034A0081E090E00E946F0881E090E00895853393
:10035A00D1F58DE00E94D51085E992E00E941C102B
:10036A008DE00E94D51088E792E00E941C108DE073
:10037A000E94D5108CEF90E00E941C108DE00E9424
:10038A00D5100E94D910813341F0823389F080332D
:10039A0009F48DC081E090E0089541E050E067E003
:1003AA0070E082E090E00E946F0881E090E008959A
:1003BA0040E050E067E070E082E090E00E946F0861
:1003CA0081E090E00895863309F05EC041E050E094
:1003DA0067E070E083E090E00E94F70765E070E074
:1003EA0088E490E00E942B108DE00E94D51080E9ED
:1003FA0091E00E941C108DE00E94D51082E891E0E5
:10040A000E941C108DE00E94D51084E791E00E94A2
:10041A001C108DE00E94D5108BE092E00E941C1007
:10042A008DE00E94D5100E94D910813351F482E0E8
:10043A0090E00E94550F88EC0E94EC1081E090E059
:10044A000895823351F482E090E00E94550F84E6C9
:10045A000E94EC1081E090E00895833351F482E029
:10046A0090E00E94550F84E10E94EC1081E090E038
:10047A0008958433F9F460E070E088E490E00E9423
:10048A002B1081E090E0089521E090E0803309F498
:10049A0020E0822F089580E090E0089580E090E0C7
:1004AA00089580E090E0089580E090E0089580E06B
:0A04BA0090E0089581E090E00895BD
:1004C40041E050E064E070E081E090E00E94F707D2
:1004D40041E050E065E070E081E090E00E94F707C1
:1004E40041E050E066E070E081E090E00E94F707B0
:1004F40041E050E067E070E081E090E00E94F7079F
:1005040041E050E067E070E082E090E00E94F7078D
:100514000E94671084E491E00E94FE0F60E070E0A6
:1005240081E090E00E940D1080E291E00E94FE0FB5
:100534000E943D048133E1F50E94671086EC92E04D
:100544000E94FE0F6AE070E080E090E00E940D10CF
:100554008FEB92E00E94FE0F60E070E081E090E09B
:100564000E940D1080E291E00E94FE0F0E943D0463
:10057400813341F0823389F0803309F46AC181E028
:1005840090E0089541E050E064E070E081E090E0A4
:100594000E946F0881E090E0089540E050E064E03C
:1005A40070E081E090E00E946F0881E090E008959F
:1005B4008233E1F50E94671086EC92E00E94FE0F00
:1005C4006AE070E080E090E00E940D108FEB92E012
:1005D4000E94FE0F60E070E081E090E00E940D1048
:1005E40080E291E00E94FE0F0E943D04813341F0BD
:1005F400823389F0803309F42FC181E090E00895BB
:1006040041E050E065E070E081E090E00E946F0816
:1006140081E090E0089540E050E065E070E081E022
:1006240090E00E946F0881E090E008958333E1F543
:100634000E94671086EC92E00E94FE0F6AE070E070
:1006440080E090E00E940D108FEB92E00E94FE0F7C
:1006540060E070E081E090E00E940D1080E291E0A3
:100664000E94FE0F0E943D04813341F0823389F0E1
:10067400803309F4F4C081E090E0089541E050E053
:1006840066E070E081E090E00E946F0881E090E015
:10069400089540E050E066E070E081E090E00E9460
:1006A4006F0881E090E008958433E1F50E946710BB
:1006B40086EC92E00E94FE0F6AE070E080E090E039
:1006C4000E940D108FEB92E00E94FE0F60E070E03C
:1006D40081E090E00E940D1080E291E00E94FE0F04
:1006E4000E943D04813341F0823389F0803309F460
:1006F400B9C081E090E0089541E050E067E070E027
:1007040081E090E00E946F0881E090E0089540E06D
:1007140050E067E070E081E090E00E946F0881E0C3
:1007240090E008958533E1F50E94671086EC92E02D
:100734000E94FE0F6AE070E080E090E00E940D10DD
:100744008FEB92E00E94FE0F60E070E081E090E0A9
:100754000E940D1080E291E00E94FE0F0E943D0471
:10076400813341F0823389F0803309F47EC081E023
:1007740090E0089541E050E067E070E082E090E0AE
:100784000E946F0881E090E0089540E050E067E047
:1007940070E082E090E00E946F0881E090E00895AC
:1007A400863309F04FC041E050E067E070E083E039
:1007B40090E00E94F70765E070E088E490E00E9412
:1007C4002B100E94671085E591E00E94FE0F60E007
:1007D40070E081E090E00E940D1085E691E00E94B7
:1007E400FE0F0E943D04813351F482E090E00E94A8
:1007F400550F88EC0E94EC1081E090E0089582335C
:1008040051F482E090E00E94550F84E60E94EC10BF
:1008140081E090E00895833351F482E090E00E94F7
:10082400550F84E10E94EC1081E090E00895843338
:10083400F9F460E070E088E490E00E942B1081E01D
:1008440090E0089521E090E0803309F420E0822FC5
:10085400089580E090E0089580E090E0089580E0BD
:1008640090E0089580E090E0089580E090E008959D
:0608740081E090E0089510
:10087A000F931F93CF93DF9301E010E063E070E0E2
:10088A0082E090E00E94390C892B09F440C1C0E053
:10089A00D0E085B3887F85BB2FEF39EF80E0215008
:1008AA0030408040E1F700C0000025B3C8010C2E9B
:1008BA0002C0880F991F0A94E2F7822B85BB8FEF3B
:1008CA0099EF20E0815090402040E1F700C00000FD
:1008DA0063E070E082E090E00E94390C892B79F0A5
:1008EA0085B3876085BB3FEF83EC99E03150804048
:1008FA009040E1F700C0000083E38C1B1CC185B364
:10090A00876085BB3FEF89EF90E03150804090408F
:10091A00E1F700C000002196C330D10509F0B9CF34
:10092A00F6C0C0E0D0E085B3887F85BB2FEF39EFF2
:10093A0080E0215030408040E1F700C0000025B33C
:10094A00C8010C2E02C0880F991F0A94E2F7822B65
:10095A0085BB8FEF99EF20E0815090402040E1F76E
:10096A0000C0000064E070E082E090E00E94390C70
:10097A00892B79F085B3876085BB3FEF83EC99E0DB
:10098A00315080409040E1F700C0000086E38C1BA4
:10099A00D2C085B3876085BB3FEF89EF90E03150C5
:1009AA0080409040E1F700C000002196C330D10595
:1009BA0009F0B9CFB6C065E070E082E090E00E942D
:1009CA00390C892B09F449C0C0E0D0E085B3887F8F
:1009DA0085BB2FEF39EF80E0215030408040E1F7AE
:1009EA0000C0000025B3C8010C2E02C0880F991F51
:1009FA000A94E2F7822B85BB8FEF99EF20E08150B2
:100A0A0090402040E1F700C0000065E070E082E01D
:100A1A0090E00E94390C892B79F085B3876085BBF9
:100A2A003FEF83EC99E0315080409040E1F700C0FD
:100A3A00000089E38C1B7FC085B3876085BB3FEFCD
:100A4A0089EF90E0315080409040E1F700C000000B
:100A5A002196C330D10509F0B9CF66E070E082E093
:100A6A0090E00E94390C892B09F408CFC0E0D0E04D
:100A7A0085B3887F85BB2FEF39EF80E02150304066
:100A8A008040E1F700C0000025B3C8010C2E02C067
:100A9A00880F991F0A94E2F7822B85BB8FEF99EF93
:100AAA0020E0815090402040E1F700C0000066E05D
:100ABA0070E082E090E00E94390C892B91F085B3B6
:100ACA00876085BB3FEF83EC99E0315080409040CE
:100ADA00E1F700C000002097B1F02197B1F08AE257
:100AEA002AC085B3876085BB2FEF39EF80E021509C
:100AFA0030408040E1F700C000002196C330D105A4
:100B0A0009F0B6CFBBCE83E216C080E314C064E01E
:100B1A0070E082E090E00E94390C892B09F001CF45
:100B2A004ACF65E070E082E090E00E94390C892BA0
:100B3A0009F04ACF92CFDF91CF911F910F9108957B
:100B4A00CF92DF92EF92FF920F931F93CF93DF938F
:100B5A000F2EF3E7CF2EF0E0DF2EF02D0F2EFFE55C
:100B6A00EF2EF0E0FF2EF02D0E94671084EE91E048
:100B7A000E94FE0FF60180818A32B1F0C4E7D0E00C
:100B8A000E943D048E0189938FE39CE90197F1F756
:100B9A0000C000000E94671084E790E00E94FE0FE8
:100BAA00F80180818A3261F70E94671082E391E03E
:100BBA000E94FE0FF70180818A32B1F0C0E6D0E0D0
:100BCA000E943D048E0189938FE39CE90197F1F716
:100BDA0000C000000E94671080E690E00E94FE0FAD
:100BEA00F80180818A3261F760E670E084E790E07C
:100BFA000E94030F0197F1F40E94671087EB92E0BD
:100C0A000E94FE0FFFEF2DE389E4F150204080405F
:100C1A00E1F700C00000E4E7F0E0108211821282DE
:100C2A0013821482E0E6F0E01082118212821382AB
:100C3A00148234C08091D4029091D5020196909387
:100C4A00D5028093D402039759F481E090E00E9480
:100C5A008E100E94671086ED91E00E94FE0FFFCF72
:100C6A000E94671082E892E00E94FE0F9FEFE9E679
:100C7A00F8E19150E040F040E1F700C00000E4E7FD
:100C8A00F0E010821182128213821482E0E6F0E010
:100C9A001082118212821382148266CFDF91CF9161
:0E0CAA001F910F91FF90EF90DF90CF90089573
:100CB800EF92FF920F931F93CF93DF930F2EF3E7DB
:100CC800EF2EF0E0FF2EF02D0FE510E089EE90E01A
:100CD8000E941C108DE00E94D510F70180818E3291
:100CE80079F0C4E7D0E00E94D910FE0189938FE320
:100CF8009CE90197F1F700C0000080818E3299F7D6
:100D08008DE00E94D5108FEB90E00E941C108DE0C2
:100D18000E94D510F80180818E3279F0C0E6D0E0CB
:100D28000E94D910FE0189938FE39CE90197F1F79E
:100D380000C0000080818E3299F78DE00E94D510A6
:100D480060E670E084E790E00E941F0F0197B1F41D
:100D580087EA92E00E941C108DE00E94D510E4E71B
:100D6800F0E010821182128213821482E0E6F0E031
:100D7800108211821282138214822DC08091D402B3
:100D88009091D50201969093D5028093D40203974F
:100D980061F481E090E00E948E108AEB91E00E945D
:100DA8001C108DE00E94D510FFCF88E890E00E94CB
:100DB8001C108DE00E94D510E4E7F0E0108211824B
:100DC800128213821482E0E6F0E01082118212820D
:100DD800138214827BCFDF91CF911F910F91FF90E7
:040DE800EF900895EB
:100DEC00AF92BF92CF92DF92EF92FF920F931F932D
:100DFC00CF93DF9300D000D0CDB7DEB78DE00E944B
:100E0C00D51082EF91E00E941C108DE00E94D5104D
:100E1C00809173008E3209F442C004E710E00E9406
:100E2C00D9107801F80181938F018FE39CE9019728
:100E3C00F1F700C000000E946710F70180818E322C
:100E4C0071F72DC0C6010E948510F50181935F01D9
:100E5C00FFEFCF1ADF0AEA14FB04A1F727C0982F83
:100E6C002D918191882319F02917C9F310C02913EA
:100E7C000EC060E0C8010E9471108DE00E94D51078
:100E8C0086ED90E00E941C108DE00E94D510083277
:100E9C001105B1F0CE0101965C016801D3CF00E0E1
:100EAC0010E07E0195E0E90EF11CF4CF0C5F1F4FB2
:100EBC0099819923F1F2A4E7B0E0FE013296D0CFEC
:100ECC00E4E7F0E01082118212821382148280E037
:100EDC0090E00F900F900F900F90DF91CF911F919A
:100EEC000F91FF90EF90DF90CF90BF90AF9008954F
:100EFC008DE00E94D51086E192E00E941C108DE0DE
:100F0C000E94D5108DE00E94D5108FEF91E00E94C9
:100F1C001C108DE00E94D5108DE00E94D5108CEF36
:100F2C0090E00E941C108DE00E94D5100E94D910F8
:100F3C00813339F541E050E063E070E081E090E00E
:100F4C000E94F70765E070E088E490E00E9496103C
:100F5C0080E290E00E949E1086E20E94E8102FEF43
:100F6C008DE399E4215080409040E1F700C00000EF
:100F7C0065E070E080E090E00E94961081E090E0E7
:100F8C000895823339F541E050E063E070E081E090
:100F9C0090E00E94F70765E070E088E490E00E9422
:100FAC00961080E290E00E949E1086E10E94E8106C
:100FBC002FEF8DE399E4215080409040E1F700C081
:100FCC00000065E070E080E090E00E94961081E007
:100FDC0090E0089521E090E0803309F420E0822F26
:020FEC00089566
:100FEE00452BC9F181309105A9F01CF4892B39F0FC
:100FFE00089582309105C9F0039711F108952AB32F
:10100E0081E090E002C0880F991F6A95E2F7822B6B
:10101E008ABB089527B381E090E002C0880F991F24
:10102E006A95E2F7822B87BB089524B381E090E0A6
:10103E0002C0880F991F6A95E2F7822B84BB089530
:10104E0021B381E090E002C0880F991F6A95E2F704
:10105E00822B81BB089581309105B1F01CF4892B50
:10106E0039F0089582309105D9F0039729F108954A
:10107E002AB381E090E002C0880F991F6A95E2F7CB
:10108E00809582238ABB089527B381E090E002C049
:10109E00880F991F6A95E2F78095822387BB089582
:1010AE0024B381E090E002C0880F991F6A95E2F7A1
:1010BE008095822384BB089521B381E090E002C025
:1010CE00880F991F6A95E2F78095822381BB089558
:1010DE00452BC9F181309105A9F01CF4892B39F00B
:1010EE00089582309105C9F0039711F108952BB33D
:1010FE0081E090E002C0880F991F6A95E2F7822B7B
:10110E008BBB089528B381E090E002C0880F991F31
:10111E006A95E2F7822B88BB089525B381E090E0B3
:10112E0002C0880F991F6A95E2F7822B85BB08953E
:10113E0022B381E090E002C0880F991F6A95E2F712
:10114E00822B82BB089581309105B1F01CF4892B5E
:10115E0039F0089582309105D9F0039729F1089559
:10116E002BB381E090E002C0880F991F6A95E2F7D9
:10117E00809582238BBB089528B381E090E002C056
:10118E00880F991F6A95E2F78095822388BB089590
:10119E0025B381E090E002C0880F991F6A95E2F7AF
:1011AE008095822385BB089522B381E090E002C032
:1011BE00880F991F6A95E2F78095822382BB089566
:1011CE00CF93DF93CDB7DEB72F970FB6F894DEBF70
:1011DE000FBECDBF2AEB30E040E085E0F901DE0125
:1011EE001196742F0E9438102FEB30E040E085E00E
:1011FE00F901DE011696742F0E94381024EC30E0AF
:10120E0040E085E0F901DE011B96742F0E94381034
:10121E00BE016F5F7F4F80E090E00E943B0FBE01EA
:10122E006A5F7F4F84E090E00E943B0FBE01655FD6
:10123E007F4F82E390E00E943B0F67E574E084E607
:10124E0090E00E94710C6EEA78E088E690E00E94D1
:10125E00710C65E07DE086E990E00E94710C0E94C1
:10126E00E6100E947B1041E050E061E070E080E803
:10127E0095E20E946E0D579A0E94FF0B8FE39CE938
:10128E000197F1F700C00000789481E090E001979B
:10129E0011F40E94A5050E94F40D0E94A00FF7CF35
:1012AE0010C00E94C11058F00E94BA1040F029F4EC
:1012BE005F3F29F00C94CF1051110C94C9100C946F
:1012CE00E1100E94C20E68F39923B1F3552391F3F6
:1012DE00951B550BBB27AA2762177307840738F097
:1012EE009F5F5F4F220F331F441FAA1FA9F335D0F4
:1012FE000E2E3AF0E0E832D091505040E695001CA8
:10130E00CAF72BD0FE2F29D0660F771F881FBB1F61
:10131E00261737074807AB07B0E809F0BB0B802D3F
:10132E00BF01FF2793585F4F3AF09E3F510578F06B
:10133E000C94CF100C94C9105F3FE4F3983ED4F395
:10134E00869577956795B795F7959F5FC9F7880F3F
:10135E00911D9695879597F90895E1E0660F771F91
:10136E00881FBB1F621773078407BA0720F0621B22
:0E137E00730B840BBA0BEE1F88F7E0950895F1
:10138C0011C00E94BA1038F00E94C11020F039F43C
:10139C009F3F19F426F40C94E1100EF4E095E7FB52
:1013AC000C94CF10E92F0E94C20E58F3BA176207A3
:1013BC0073078407950720F079F4A6F50C94C810F0
:1013CC000EF4E0950B2EBA2FA02D0B01B901900154
:1013DC000C01CA01A0011124FF27591B99F0593F98
:1013EC0050F4503E68F11A16F040A22F232F342FE0
:1013FC004427585FF3CF469537952795A795F0402E
:10140C005395C9F77EF41F16BA0B620B730B840B42
:10141C00BAF09150A1F0FF0FBB1F661F771F881FFA
:10142C00C2F70EC0BA0F621F731F841F48F4879552
:10143C0077956795B795F7959E3F08F0B0CF939544
:0E144C00880F08F09927EE0F97958795089561
:10145A006F927F928F929F92AF92BF92CF92DF92BA
:10146A00EF92FF920F931F93CF93DF9300D000D098
:10147A00CDB7DEB78C01662E772E6C0188E2C80ED6
:10148A00D11C7E0195E0E90EF11C1DC0C5010E9428
:10149A008510F40181934F01FFEFAF1ABF0AE814D8
:1014AA00F904A1F718C0982F21918D91882319F07A
:1014BA002917C9F305C0291303C0802F912F15C01E
:1014CA000C151D0529F0CE0101964C015801DECFFD
:1014DA0080E090E00AC00C5F1F4F9981992369F35D
:1014EA00E62DF72DDE011296DFCF0F900F900F90A9
:1014FA000F90DF91CF911F910F91FF90EF90DF90A6
:10150A00CF90BF90AF909F908F907F906F900895EB
:10151A008F929F92AF92BF92CF92DF92EF92FF92F9
:10152A000F931F93CF93DF9300D000D0CDB7DEB7D0
:10153A006C01862E972ECE0101967C015E0195E004
:10154A00A90EB11C8601C8010E948510F70181937A
:10155A007F010F5F1F4FEA15FB05A9F7F4E0CF0ED5
:10156A00D11C2981222389F0E82DF92DDE0112965A
:10157A0001C0292F31919D91992329F03217C9F37E
:10158A0080E090E007C0321303C08C2D9D2D02C06D
:10159A0080E090E00F900F900F900F90DF91CF9125
:1015AA001F910F91FF90EF90DF90CF90BF90AF9077
:0615BA009F908F90089540
:1015C0008DE00E94D5108CE892E00E941C108DE006
:1015D0000E94D5108DE00E94D5108EE692E00E9408
:1015E0001C108DE00E94D5108DE00E94D5108CEF6C
:1015F00090E00E941C108DE00E94D5100E94D9102E
:101600008133A9F480E090E00E947E0B80E090E0BE
:101610000E94C80D65E070E080E090E00E949610A6
:1016200080E090E00E94511081E090E008958233C4
:1016300089F480E090E00E94DB0C60E070E080E0E4
:1016400090E00E94961080E090E00E94451081E0BA
:1016500090E0089521E090E0803309F420E0822FAB
:021660000895EB
:101662000E94671086EC92E00E94FE0F6AE070E032
:1016720080E090E00E940D108FEB92E00E94FE0F3E
:1016820060E070E081E090E00E940D1080E291E065
:101692000E94FE0F0E943D048133A9F480E090E095
:1016A2000E947E0B80E090E00E94C80D65E070E031
:1016B20080E090E00E94961080E090E00E9451103D
:1016C20081E090E00895823389F480E090E00E9406
:1016D200DB0C60E070E080E090E00E94961080E019
:1016E20090E00E94451081E090E0089521E090E0B2
:0A16F200803309F420E0822F0895F0
:1016FC00892B09F141E050E065E070E082E090E078
:10170C000E94F70741E050E066E070E082E090E074
:10171C000E94F70741E050E065E070E083E090E064
:10172C000E94F70741E050E065E070E083E090E054
:10173C000E946F08089541E050E062E070E083E0A1
:10174C0090E00E94F70741E050E063E070E083E036
:10175C0090E00E94F70741E050E064E070E083E025
:10176C0090E00E94F70741E050E064E070E083E015
:08177C0090E00E946F0808953F
:10178400E89409C097FB3EF4909580957095619517
:101794007F4F8F4F9F4F9923A9F0F92F96E9BB27CD
:1017A4009395F695879577956795B795F111F8CF49
:1017B400FAF4BB0F11F460FF1BC06F5F7F4F8F4FB4
:1017C4009F4F16C0882311F096E911C0772321F0AA
:1017D4009EE8872F762F05C0662371F096E8862F42
:1017E40070E060E02AF09A95660F771F881FDAF799
:0A17F400880F9695879597F90895E0
:1017FE008AB3806F8ABB41E050E060E070E081E028
:10180E0090E00E94F70741E050E061E070E081E077
:10181E0090E00E94F70741E050E062E070E081E066
:10182E0090E00E94F70740E050E061E070E081E058
:10183E0090E00E946F080E94671082E00E94200EC6
:10184E0088E20E94200E8CE00E94200E86E00E940C
:10185E00200E0E9467108FE99FE00197F1F700C0FC
:04186E0000000895D9
:1018720081309105A1F01CF4892B39F02EC0823001
:101882009105B9F00397F9F028C089B390E002C03E
:10189200959587956A95E2F781709927089586B3A1
:1018A20090E002C0959587956A95E2F78170992735
:1018B200089583B390E002C0959587956A95E2F703
:1018C20081709927089580B390E002C0959587951D
:1018D2006A95E2F781709927089580E090E0089573
:1018E200CF92DF92EF92FF920F931F93CF93DF93EA
:1018F20000D000D01F92CDB7DEB77C01CB014AE009
:10190200BE016F5F7F4F0E945C108E010F5F1F4F01
:101912006E0185E0C80ED11CF80161918F01C701EB
:101922000E947110FFEFEF1AFF0A0C151D05A1F7B7
:101932000F900F900F900F900F90DF91CF911F910A
:0C1942000F91FF90EF90DF90CF90089580
:10194E001F920F920FB60F9211242F933F934F9326
:10195E005F936F937F938F939F93AF93BF93EF9309
:10196E00FF938091D2029091D30201969093D3026D
:10197E008093D2028633914031F40E94760E1092FB
:10198E00D3021092D202FF91EF91BF91AF919F912E
:10199E008F917F916F915F914F913F912F910F900A
:0819AE000FBE0F901F90189569
:1019B600892BC9F040E050E065E070E082E090E0FD
:1019C6000E946F0840E050E066E070E082E090E040
:1019D6000E946F0840E050E065E070E083E090E030
:1019E6000E946F08089540E050E062E070E083E0F6
:1019F60090E00E946F0840E050E063E070E083E012
:101A060090E00E946F0840E050E064E070E083E000
:081A160090E00E946F080895A2
:101A1E008DE00E94D5108CEA91E00E941C108DE0A2
:101A2E000E94D51088E592E00E941C108DE00E9465
:101A3E00D5108DE492E00E941C108DE00E94D5100E
:101A4E008EE992E00E941C108DE00E94D5108EE06F
:101A5E0091E00E941C108DE00E94D5108EE991E05D
:101A6E000E941C108DE00E94D5100E94D91008957E
:101A7E000E94CA0E88F09F5798F0B92F9927B75138
:101A8E00B0F0E1F0660F771F881F991F1AF0BA9514
:101A9E00C9F714C0B13091F00E94C810B1E008959A
:101AAE000C94C810672F782F8827B85F39F0B93F8C
:101ABE00CCF3869577956795B395D9F73EF49095C7
:0E1ACE008095709561957F4F8F4F9F4F0895C3
:101ADC009B016AB1440F551F440F551F440F551FEE
:101AEC00462B22953295307F3227207F3227242BAC
:101AFC002AB9BC01990F880B990B0E94C40B9B014E
:101B0C00AC0160E074E284E799E40E94DD1020E00F
:101B1C0030E040E85FE30E94AC100E94B31069B95A
:0C1B2C006F3F710511F00CF070BD0895C2
:101B38001F920F920FB60F9211242F933F934F933A
:101B48005F936F937F938F939F93AF93BF93EF931D
:101B5800FF930E94D9100E945C060E940F0D0E94FC
:101B68009F0E892BD1F7FF91EF91BF91AF919F9174
:101B78008F917F916F915F914F913F912F910F902E
:081B88000FBE0F901F9018958D
:101B9000892B89F041E050E065E070E082E090E060
:101BA0000E946F0840E050E066E070E082E090E064
:101BB0000E946F08089541E050E062E070E083E029
:101BC00090E00E946F0840E050E063E070E083E046
:101BD00090E00E946F0841E050E064E070E083E034
:081BE00090E00E946F080895D7
:101BE8000E94671088EC91E00E94FE0F2FEF8DE3B2
:101BF80099E4215080409040E1F700C000000E9425
:101C080067108CEC92E00E94FE0F66E070E080E0C6
:101C180090E00E940D108FEA92E00E94FE0F60E0B3
:101C280070E081E090E00E940D1083E692E00E944F
:081C3800FE0F0E943D04089517
:101C4000CF93C82F40E050E060E070E081E090E08A
:101C50000E946F088BB38F709C2F907F892B8BBB5A
:101C60000E94890F8FE99FE00197F1F700C0000003
:101C70008BB3282F2F7030E1C39FC0011124822B1A
:101C80008BBB0E94890F8FE99FE00197F1F700C09D
:061C90000000CF91089551
:101C9600CF93C82F41E050E060E070E081E090E033
:101CA6000E946F088BB38F709C2F907F892B8BBB04
:101CB6000E94890F8FE99FE00197F1F700C00000AD
:101CC6008BB3282F2F7030E1C39FC0011124822BC4
:101CD6008BBB0E94890F8FE99FE00197F1F700C047
:061CE6000000CF910895FB
:101CEC0027E030E040E050E061E070E080E090E020
:101CFC000E94E40E0E94EA100E94A5109C01220F83
:101D0C00331F220F331F820F931F6AE070E00E9473
:101D1C00B50F6D3171052CF080E090E00E94C80D7C
:101D2C0008956531710524F480E090E00E94DB0C8D
:021D3C00089508
:101D3E00813329F40E947E0781E090E0089582337A
:101D4E0029F40E94650081E090E00895833329F420
:101D5E000E94E00A81E090E00895843329F40E9405
:101D6E00F60681E090E0089521E090E0853309F4D5
:061D7E0020E0822F089511
:101D840057FD9058440F551F59F05F3F71F0479528
:101D9400880F97FB991F61F09F3F79F0879508950D
:101DA400121613061406551FF2CF4695F1DF08C02C
:101DB400161617061806991FF1CF86957105610549
:041DC40008940895E2
:101DC80017B887B987B100247695679507947695F3
:101DD80067950794762F602D682B67B987B1440FF4
:101DE800551F42955295507F5427407F5427482BC2
:0E1DF80047B916B886B1282B26B9379A089538
:101E0600CF93DF93EB01BC0180E090E00E942D0AA6
:101E1600009769F0BE01805A9F4F0E948D0A31E0FB
:101E260020E0892B09F430E0832F922F02C080E056
:081E360090E0DF91CF910895C7
:101E3E00CF93DF93EB01BC0182E390E00E942D0A69
:101E4E00009769F0BE01805A9F4F0E948D0A31E0C3
:101E5E0020E0892B09F430E0832F922F02C080E01E
:081E6E0090E0DF91CF9108958F
:101E76000F931F93CF93DF93EC01FB0160816623E1
:101E860061F08F010F5F1F4FCE010E9471102196E6
:101E9600F80161918F016111F7CFDF91CF911F9109
:041EA6000F910895FB
:101EAA00CF93DF93EC0141E050E067E070E083E01C
:101EBA0090E00E94F70785B58F7C85BD85B5C295F0
:101ECA00D295D07FDC27C07FDC27C82BC5BDDF9128
:041EDA00CF91089507
:101EDE00BB27FB015527AA27880F991FAA1FA417F6
:101EEE0010F0A41B83955051B9F7A05DAA3308F0EA
:101EFE00A95DA193009779F7B111B1931192CB011E
:041F0E000C94EE0F32
:101F120041E050E062E070E081E090E00E946F08F2
:101F22008FE19EE40197F1F700C0000040E050E02D
:0E1F320062E070E081E090E00E946F08089588
:101F4000813329F40E94310B80E090E008958233C0
:101F500029F40E94620280E090E0089521E090E080
:0A1F6000833309F020E0822F08957A
:101F6A0097FB072E16F4009407D077FD09D00E943C
:101F7A00C90F07FC05D03EF4909581959F4F0895AF
:081F8A00709561957F4F0895E9
:101F9200AA1BBB1B51E107C0AA1FBB1FA617B7078D
:101FA20010F0A61BB70B881F991F5A95A9F78095A9
:081FB2009095BC01CD010895DA
:101FBA00092E0394000C11F4882352F0BB0F40F44D
:101FCA00BF2B11F460FF04C06F5F7F4F8F4F9F4F8D
:021FDA00089568
:101FDC00DC01FC01672F71917723E1F7329704C084
:101FEC007C916D9370836291AE17BF07C8F308950F
:101FFC00CF93DF93EC018881882331F021960E94E6
:0E200C004B0E89918111FBCFDF91CF9108958A
:10201A00009719F0019731F00895862F80680E9481
:0E202A00200E0895862F806C0E94200E0895CF
:10203800CF93DF93EC018881882331F021960E94A9
:0E204800D51089918111FBCFDF91CF910895C2
:1020560095B5977B95BD95B5987F95BD95B5892B1B
:0A20660085BD85B5682B65BD0895A2
:10207000992777FD05C005900D920197E1F7089526
:0A20800001900D920197E1F7089519
:10208A0099B721E030E002C0220F331F8A95E2F7A8
:08209A002095292329BF0895B8
:1020A20099B721E030E002C0220F331F8A95E2F790
:0620B200292B29BF08954F
:1020B800BB274A3031F4992322F4BDE290958195EB
:0620C8009F4F0C94700F05
:1020CE0081E00E94200E8FE99FE00197F1F700C09A
:0420DE000000089561
:1020E200E199FECF8EBB8FB3982B9FBB6DBBE29A5B
:0420F200E19A0895D2
:1020F60084B3876084BB84B3877884BB85B38760E9
:0421060085BB0895F8
:10210A00E199FECF8EBB8FB3982B9FBBE09A8DB31C
:02211A00089526
:10211C00AC0165E070E083E090E00E946F080895E8
:10212C0013BE93B7892B83BF83B7682B63BF089506
:0E213C0093B79F7D93BF93B7892B83BF089500
:0E214A00349BFECF84B125B190E0922B089516
:0E2158005058BB27AA270E94C6090C94DD0F21
:0E2166000E943F0D6894B1110C94C9100895A9
:0E21740000240A941616170618060906089588
:0E21820000240A94121613061406050608958A
:0E219000E894BB2766277727CB0197F90895BF
:0C219E0097F99F6780E870E060E008950A
:0821AA005D9BFECF8CB9089586
:0821B2005F9BFECF8CB1089584
:0821BA000E9457090C94DD0F8F
:0621C2009FEF80EC089580
:0421C8000C94000073
:0421CC008D9A08954B
:0421D0008CBF089523
:0421D400369A08959A
:0421D80083BD089526
:1021DC0075736572206F722070617373776F7264A0
:0E21EC0020697320696E636F72726563740000
:1021FA0035203E3E3E204C454435202844696D6DCD
:09220A00696E67204C454429006F
:10221300456E7465722061646D696E2070617373BD
:07222300776F7264203A009E
:10222A00557365722069732064656C657465642EE4
:03223A002E2E0045
:10223D00456E7465722061646D696E20757365728B
:03224D00203A0034
:1022500030203E3E3E2052657475726E20486F6D90
:02226000650017
:1022620034203E3E3E2044656C657465207573657E
:022272007200F8
:1022740030203E3E3E2052657475726E20486F6D6C
:022284006500F3
:10228600454E5445522075722070617373776F7294
:022296006400E2
:102298004C45443E3E312032203320342035203610
:0122A8000035
:1022A900313E3E4C564C3120323E3E4C564C31006C
:0F22B900333E3E4C564C3320343E3E4F4646009B
:0E22C80033203E3E3E204C4556454C20330010
:0E22D60032203E3E3E204C4556454C20320004
:0E22E40031203E3E3E204C4556454C203100F8
:0E22F20035203E3E3E204C4F47204F555400B5
:0E23000057656C6C636F6D65202E2E2E2E00BF
:0E230E004163636573732044656E6965640006
:0E231C0057656C6C636F6D65202E2E2E2E00A3
:0E232A004163636573732044656E69656400EA
:0E233800454E54455220757220557365720053
:0D234600456E7465722075736572203A0053
:0C23530032203E3E3E20434C4F534500DC
:0B235F0034203E3E3E20204F4646004A
:0B236A0031203E3E3E204F50454E000B
:0B23750034203E3E3E204C4544340026
:0B23800033203E3E3E204C454433001D
:0B238B0032203E3E3E204C4544320014
:0B23960031203E3E3E204C454431000B
:0B23A10032203E3E3E204C45445300DD
:0B23AC0031203E3E3E20444F4F5200C7
:0B23B700333E3E4C4F47204F55540072
:0A23C20032203E3E3E204F4646000A
:0A23CC0032203E3E3E204F46460000
:0A23D600696E636F72726563740034
:0923E00031203E3E3E204F4E002C
:0923E90031203E3E3E204F4E0023
:0923F20033203E3E3E2041430031
:0823FB00416363657365640032
:08240300323E3E4C45445300FB
:08240B00416363657365640021
:07241300323E3E4F46460039
:06241A00313E3E4F4E0072
:06242000313E3E41430085
:00000001FF
